:020000040000FA
:10000000E82F8207FF34C0347F34C0345F34C034FB
:100010005734C0345534C03455344034D53440346A
:10002000F5344034FD344034FF344034831203133C
:10003000061D2114861DA1141D2806190800861905
:100040000800A3140800C600C60746080120A9003E
:100050004608013E0120AA006F220800C900560888
:10006000C6004908D6001430A600A700A214352106
:10007000A60B3728A70B3728A2104608D600080081
:1000800014302E20080037302E2008004020432056
:100090000800432040200800831203131030B400EE
:1000A000B001B101B201B3010310AD0DAC0DB30D40
:1000B000B20D2E083202031D65282F083302031CDF
:1000C0006E28B3002E08B2026D28031C6E282F087C
:1000D000B302031CB2032E08B2020314B10DB00D1B
:1000E000B40B5428003483120313B50137080F39B9
:1000F000B6008A20380E862038088620390E8620E1
:1001000039080F39B6070318B50A08000F39B607C2
:100110000318B50A0310360DDF00350DE00003109B
:10012000B60DB50D0310B60DB50D0310B60DB50D1A
:100130005F08B6070318B50A6008B5070800831200
:10014000031303101030B400B701B801B901B60DA4
:10015000B50DB90DB80DB70DB40BAF28003439305B
:100160008400B92038308400B92037308400B920A9
:10017000A72803300007AB00AB1980003030000720
:10018000AB00AB1B80000034831603131A088312E4
:100190000313BC00831603131B0883120313BD0053
:1001A000831203138B13831603131C1555309D0004
:1001B000AA309D009C149C18DB28831203133D0871
:1001C000831603139B00831603131C148316031357
:1001D0001A08831203133C02031DF8288312031329
:1001E0008B17831603131C119C138312031308002F
:1001F000831203133C08831603139A00831203131C
:100200003D08831603139B0083120313D028831227
:1002100003132030AD004E30AC002008AF0000309A
:10022000AE004C203108A5003008A400080083125D
:100230000313061C19291F211F21211108008312F5
:100240000313FF30A6007830A7000130A800A60BEA
:100250002729A70B2729A80B272908008312031396
:10026000B4001F21B40B31290800A21C4429D50A6F
:1002700056085502031D4A29061E41290000061290
:1002800042290616D501512906120000000000007F
:10029000000000000000000000000000000000005E
:1002A000000008002408A6002508A7000330A800C5
:1002B000A11D5D29861DA1146029061D21140000C1
:1002C0003521A80B5829A70B5629A60B562908003B
:1002D00052215221522152215221522108005418F8
:1002E000211DA21421198616A11D782952217B29CE
:1002F000522152215221A2108612522108000530AB
:10030000831603139B00831203135D0883160313E4
:100310009A0083120313C4200630831603139B0034
:10032000831203135E08831603139A0083120313C8
:10033000C42008000030831603139B00143083167A
:1003400003139A0083120313C4200130831603138E
:100350009B002230831603139A0083120313C420D8
:100360000730831603139B00FF30831603139A0094
:1003700083120313C4200F30831603139B008312D0
:100380000313C4204830831603139B008312031306
:10039000C4200330831603139B00BF30831603135E
:1003A0009A0083120313C4200430831603139B00A6
:1003B0000430831603139A0083120313C4207F2191
:1003C000D401E8214620462046208312031308006A
:1003D0000230831603139B00831203135408831601
:1003E00003139A0083120313C4208312031308001B
:1003F00002302E218312031307309F00831603134C
:10040000173085000D308600831203132110A110D0
:100410008612A21021150030831603139B00831649
:1004200003131C14831603139A1B9A2183120313BC
:100430000030C123A00007210730CC000F30CD00D1
:100440004830CE001C30CF00E030D000DC30D1008E
:100450000230C123D4000130C123D600D5010330BE
:10046000C123DB000430C123DC000530C123DD00E3
:100470000630C123DE00831203132210A3102311C0
:100480000034061C452A86190034A1153C30A00012
:1004900007215221061C4E2A0619522A8616541C80
:1004A000A214492A8612A210492A0034211C5B2A70
:1004B0002110A1156F21A11C0800A110A1116F210D
:1004C00008002008043C03180800A00307210800C6
:1004D0002008283C031C0800A00A07210800283037
:1004E00084000230B400840AC030CA00221C7C2A76
:1004F000CD23013C03199E2A4A08AB0000084A0597
:100500000319982A4A0203198E2AAA30AB0500085B
:100510002B0203199B2AA1156F21902AA1116F218B
:100520000310CA0CCA0C031C762AB403031D732AD9
:1005300052215221080052215221902ADA23A11778
:100540000800B90E39080F392320B90E39080F39C0
:10055000232008000030B5002008B6009F20A1220B
:100560000800A11504302E216F21061D861DBA2A10
:100570006822B42A861D061DBF2A6122B42A061CE1
:10058000C42A061D8619B42A1F21061CC42A061D6A
:10059000C42A861DC42A05302E21D32205302E21DF
:1005A0002110A11008000030831603139B00831252
:1005B00003132008831603139A0083120313C42025
:1005C0000800211202302E21A1156F212008C6003B
:1005D0003C30A00007215221061D0C2B861D122B3A
:1005E000211AF42A8612A210061CF92A061D861961
:1005F000EB2A8612A2101F21061CF92A061DF92AD1
:10060000861DF92A4608A000072102302E21A115D7
:100610006F212110A110080021128616541CA2146B
:100620005221F42A2116861E192B8612A2101F2190
:100630001D2B8616541CA21452215221061DF42A89
:10064000861D1D2BF42A02302E214920C501A1123E
:10065000C030C800C6014C3084004B088407000835
:10066000C700D200C70A061C522B16202118822B65
:10067000A118822B332B0030C300C400051C522B61
:10068000851C522B051D522B061C522B162021189F
:10069000682BA118682BC30F3E2B4408FF3C031D99
:1006A000C40A3E2BA11AAA2345080319C503520800
:1006B000831603139B008312031345088316031349
:1006C0009A0083120313C42003302E214620080011
:1006D0002508AF002408AE004308AD004408AC0074
:1006E0004C2030080319762BFF30B0003108013C54
:1006F0000318822B31080E3C0318802B0030812B0D
:10070000AA30A123211C892BA1156F21553021105E
:100710008D2BA1116F21FF30A110A1234F30840038
:100720004B08840700084502031D3B2BA2144320FD
:100730001F21061D972B861D972BA2102110A1109B
:10074000522B4805C607C50AA116C80CC80C0318C9
:10075000AA230800C9004708831603139B008312CD
:1007600003134608831603139A00831203131620FB
:10077000C4201620C030C800C601C70A4908A1120B
:100780000800831603139B00831603131C1483169F
:1007900003131A08831203130800061D0134861D73
:1007A0000134061C0134051C0134851C0134051D6F
:1007B00001340034CD23013C0319DA2B1F2108003A
:1007C000A1134C3084004B0884070008C700C123E4
:1007D000C500FF304502031DEF2B43200800C70A68
:1007E0004708C123C6000430C800C60D0318022CF8
:1007F000C60D03180B2C5221522152215221522195
:1008000052210D2CC60D0318082C522152210D2CFB
:10081000A1116F210D2CA1156F21C503031908002B
:100820002319162CCD23013C03191B2CC8030319D3
:10083000EF2BF52B0800DA23A1170800CB012323A7
:1008400008000130CB00232308000230CB00232313
:100850000800CB01E02308000130CB00E0230800B2
:100860000230CB00E02308008312031306180800AF
:10087000051C432C851C462C051D492C061D542C9B
:10088000861D592C5E2C19211E24F02C192121249F
:10089000F02C19212524F02C061D542C861D592CD2
:1008A000061C4C2CD322F02C21116822A1156F219B
:1008B0004C2C21116122A1156F214C2C1F21061CEB
:1008C000382C83120313211122112212A212A21317
:1008D00023104920831203132113C101C2012508EB
:1008E000BE002408BF000130C00083120313061CA1
:1008F000F42C1620831203132118FA2CA118012DB1
:10090000211F752CBE03031D752CBF03031D752C01
:10091000C003031D752C04302E2183120313221AE9
:10092000422DA21A632DA21B102D2318292D420837
:10093000031DCF2C83120313403041020319CF2D26
:10094000543041020319E72DC03041020319EC2D48
:10095000F03041020319CB2D553041020319CD2D42
:10096000F73041020319D62DD73041020319ED2C7F
:10097000221DE32C5C3041020319022E7530410226
:100980000319002E5D3041020319052ED5304102B6
:100990000319C42DDC3041020319C62DE32C831248
:1009A000031350304202031DD92C5F30410203195A
:1009B000EA2D221DE32CF0304202031DE32CF5301A
:1009C00041020319D82D5F30A9005030AA006F22D0
:1009D000831203132212A2126A2C462083120313DD
:1009E0002110A11021150800061CF42C1F218312D0
:1009F0000313ED2CA1156F2183120313211721106E
:100A0000072DA1116F21831203132117A1100314C5
:100A1000C10CC20C0310A11D0314C10CC20C6F2C1D
:100A2000C0304202031D182DFF3041020319F72D7B
:100A300040304202031D202DFF3041020319FA2DE0
:100A400040304202031DE32CFD3041020319FD2D0D
:100A5000E32CC0304202031D312DFF304102031947
:100A6000EE2D40304202031D392DFF3041020319A3
:100A7000F12D40304202031DE32CFD3041020319E9
:100A8000F42DE32CC0304202031D4A2DFF304102F9
:100A90000319DB2D40304202031D522DFF3041026D
:100AA0000319DE2D40304202031D5A2DFD30410254
:100AB0000319E12D40304202031DE32CF5304102C1
:100AC0000319E42DE32C4208031D6A2DD73041029F
:100AD0000319BC2DC03042020319912D403042024F
:100AE0000319732DE32CFF304102031D792D0130D2
:100AF000AF2DFD304102031D7F2D0230AF2DF530AB
:100B00004102031D852D0330AF2DD5304102031D59
:100B10008B2D0430AF2D55304102031DE32C0530E1
:100B2000AF2D55304102031D972D0630AF2D5730A4
:100B30004102031D9D2D0730AF2D5F304102031D83
:100B4000A32D0830AF2D7F304102031DA92D0930A0
:100B5000AF2DFF304102031DE32C0030AF2DC90043
:100B60000430A6000310B90DB80DB70DA603031D80
:100B7000B32D4908B9076A2C73203508DD00360803
:100B8000DE007F21A212072E22166A2CA216B701C0
:100B9000B801B9016A2CA2176A2C23146A2C2215F9
:100BA000402040204020831203136A2C16276A2C11
:100BB0005626E8216A2C10262212072E132622120E
:100BC000072E16262212072E19262212072EB122D0
:100BD000AA226A2CAA226A2CE1226A2C1E24231043
:100BE0006A2C212423106A2C252423106A2C292402
:100BF000A2136A2C2C24A2136A2C3024A2136A2C70
:100C00006E266A2C5E26E821072E1C266A2C0330ED
:100C10002E2183120313A1156F21831203136A2C53
:100C20005412D41208005412D41608005416D412C8
:100C300008005416D4160800A211D419A215D41510
:100C40000518242E851C1627061D482E861D502E9D
:100C50000618202E0330831603139B008312031300
:100C60005B08831603139A0083120313C420043015
:100C7000831603139B00831203135C08831603136C
:100C80009A0083120313C420A2190800D41108008B
:100C900040201F21FF30DC035C020319DB031C2E04
:100CA00043201F21DC0F1C2EDB0A1C2ED4195B2EC7
:100CB000D41540200800D411432008005418622E97
:100CC00054140800541008005608133C031DD603A2
:100CD000080056084D3C031DD60A0800A111A214B5
:100CE0005221061D861D762E6426702E861D061D39
:100CF0007B2E6926702E061C802E061D8619702EEE
:100D0000A21006121F21061C802E061D802E861D95
:100D1000802E0130831603139B00831203135608A1
:100D2000831603139A0083120313C4202110A11009
:100D300008002330C600A113CD23013C0319A42EC3
:100D40001F21C60B9C2E0800A1170800051CAD2E04
:100D5000851CAD2E051DAD2E08000730D3001E30BA
:100D6000B4000508D305B40BB12E5318BF2ED31809
:100D7000BF2E531DBF2E211116272115FC2E051C39
:100D8000C62E851CD82E051DEA2E0800B40A0518AB
:100D9000CB2E1F21C62E0530B4020318D12E2924D4
:100DA000FC2E2924A11BFC2E9926A11BFC2ED12E42
:100DB000B40A8518DD2E1F21D82E0530B402031881
:100DC000E32E2C24FC2E2C24A11BFC2E9926A11BE7
:100DD000FC2EE32EB40A0519EF2E1F21EA2E053052
:100DE000B4020318F52E3024FC2E3024A11BFC2E57
:100DF0009926A11BFC2EF52E2110A1100800051824
:100E00000800851808002111162705302E21042F0F
:100E1000061D86190C2F0F2F4122FF260800061DE4
:100E20000F2F861D0F2F9A21F82108008316031318
:100E300034308100831203135C08A6005B08A7000E
:100E4000D701D801D9010B11810101080B1D2D2FEC
:100E50000B11D80F302FD70A322F000000000000EE
:100E600000000000A60A0319A70A031D252FD900B8
:100E70000730B4000310D90DD80DD70DB40B3A2F9D
:100E800003101830B400B701B801B901DA01D90D67
:100E9000D80DD70DDA0DB90DB80DB70DB40B512F14
:100EA000692F5A3084005E27393084005E2738303D
:100EB00084005E27373084005E27472F0330000709
:100EC000C600C619800030300007C600C61B80006F
:100ED0000800D419732F541A702FD41E732FA12F0A
:100EE000D41AC12FB62FD41D7F2FB70E37080F3954
:100EF00003197B2F2320B70E37080F392320D4196D
:100F0000842F380803198E2FB80E38080F39D41DD6
:100F1000031D2320B80E38080F392320B90E3908D5
:100F20000F392320D41D0800B90E39080F392320AA
:100F3000DA0E5A080F392320DA0E5A080F39232007
:100F40000800B701CC27B70173205E08DF005D08F9
:100F5000E0003608DF02031CE0033508E0025F080A
:100F6000B6006008B5009F20DA27732FCC277320C6
:100F70005E08B602031CB5035D08B5029F20DA27A0
:100F8000732FCC2773205E08B6070318B50A5D08D7
:100F9000B5079F20DA27732FC9010430B40003106E
:100FA000B70CB80CB90CC90CB403031DCF2F4908FA
:100FB000B7070800C9010430B4000310B90DB80D1B
:100FC000B70DC90DB403031DDD2F4908B90708008B
:100FD000F821082783120313342416205622A6264C
:020FE000EA2FF6
:02400E002A3F47
:00000001FF
