:020000040000FA
:10000000C42E8207FF34C0347F34C0345F34C03420
:100010005734C0345534C03455344034D53440346A
:10002000F5344034FD344034FF344034831203133C
:1000300054191F28061D2114861DA1142328061DEE
:10004000A114861D2114D418080006190800861969
:100050000800A3140800C600C60746080120A9002E
:100060004608013E0120AA0068220800C90056087F
:10007000C6004908D6001430A600A700A2141E210D
:10008000A60B3F28A70B3F28A2104608D600080061
:1000900014303620080037303620080048204B2026
:1000A00008004B2048200800831203131030B400CE
:1000B000B001B101B201B3010310AD0DAC0DB30D30
:1000C000B20D2E083202031D6D282F083302031CC7
:1000D0007628B3002E08B2027528031C76282F0854
:1000E000B302031CB2032E08B2020314B10DB00D0B
:1000F000B40B5C2800348312031303101030B400D7
:10010000B701B801B901B60DB50DB90DB80DB70DF0
:10011000B40B8B28003439308400952038308400AB
:100120009520373084009520832803300007AB00EA
:10013000AB19800030300007AB00AB1B80000034EF
:10014000831603131A0883120313BC0083160313C8
:100150001B0883120313BD00831203138B13831632
:1001600003131C1555309D00AA309D009C149C184B
:10017000B728831203133D08831603139B008316CD
:1001800003131C14831603131A08831203133C026F
:10019000031DD428831203138B17831603131C111A
:1001A0009C13831203130800831203133C08831665
:1001B00003139A00831203133D08831603139B0055
:1001C00083120313AC28831203132030AD004E308A
:1001D000AC002008AF000030AE0054203108A5006C
:1001E0003008A4002030AD004E30AC005B08AF00FA
:1001F0000030AE0054203108D8003008D700080085
:1002000083120313061C022908210821211108006A
:1002100083120313FF30A6007830A7000130A80036
:10022000A60B1029A70B1029A80B10290800831270
:100230000313B4000821B40B1A290800A21C2D29AD
:10024000D50A56085502031D3329061E2A29000027
:1002500006122B290616D5013A29061200000000C5
:10026000000000000000000000000000000000008E
:100270000000000008002408A6002508A700541963
:1002800053290330A800A11D4829861DA1144B291C
:10029000061D211400001E21A80B4329A70B41298C
:1002A000A60B412908000330A800A11D5A29061DEC
:1002B000A1145D29861D211400001E21A80B5529BB
:1002C000A70B5329A60B532908003B213B213B21B7
:1002D0003B213B213B2108005418211DA214211968
:1002E0008616A11D75293B2184292508DA002408DA
:1002F000D9005808A5005708A4003B213B213B2109
:100300005A08A5005908A400A21086123B21080033
:100310000030831603139B001430831603139A00D6
:1003200083120313A0200130831603139B00223095
:10033000831603139A0083120313A0200730831639
:1003400003139B00FF30831603139A0083120313D9
:10035000A0200F30831603139B0083120313A020E9
:100360004830831603139B0083120313A020D4018B
:10037000BF214E204E204E2083120313080002306E
:10038000831603139B00831203135408831603136D
:100390009A0083120313A020831203130800023073
:1003A00017218312031307309F008316031317309E
:1003B00085000D308600831203132110A1108612D0
:1003C000A21021150030831603139B00831603131C
:1003D0001C14831603139A1B882183120313003005
:1003E000D623A000DB00E3200730CC000F30CD0087
:1003F0004830CE001C30CF00E030D000DC30D100DF
:100400000230D623D4000130D623D600D501831282
:1004100003132210A31023110034061C112A86197D
:100420000034A1153C30A000E3203B21061C1A2A11
:1004300006191E2A8616541CA214152A8612A2100A
:10044000152A0034211C322A2110A1156C21D41840
:10045000322AA31C322A061D322A861D322AA310F4
:100460002110A110A11C0800A110A111541F4B2A9A
:100470002008C6003C30A000E320A115541CA214A3
:1004800086163B21861D3E2AA21086124608A00031
:10049000E320A11008006C21D4180800A31C080058
:1004A000061D0800861D0800A3102110A1100800D9
:1004B0002008043C03180800A003DB03E320080025
:1004C0002008283C031C0800A00ADB0AE3200800DF
:1004D000283084000230B400840AC030CA00221CD4
:1004E000752AE223013C0319972A4A08AB00000849
:1004F0004A050319912A4A020319872AAA30AB0533
:1005000000082B020319942AA1156C21892AA11134
:100510006C210310CA0CCA0C031C6F2AB403031D00
:100520006C2A3B213B2108003B213B21892AEF23F8
:10053000A1170800B90E39080F392B20B90E390858
:100540000F392B2008000030B5002008B6007B20B2
:100550009A220800A115043017216C21061D861D62
:10056000B32A6022AD2A861D061DB82A5822AD2A5C
:10057000061CBD2A061D8619AD2A0821061CBD2AA7
:10058000061DBD2A861DBD2A05301721CC22053047
:1005900017212110A11008000030831603139B00BF
:1005A000831203132008831603139A008312031384
:1005B000A0200800211202301721A1156C2120086B
:1005C000C6003C30A000E3203B21061D052B861D04
:1005D0000B2B211AED2A8612A210061CF22A061DE8
:1005E0008619E42A8612A2100821061CF22A061D8A
:1005F000F22A861DF22A4608A000E32002301721C5
:10060000A1156C212110A110080021128616541C7E
:10061000A2143B21ED2A2116861E122B8612A2104F
:100620000821162B8616541CA2143B213B21061DC3
:10063000ED2A861D162BED2AB501B601A115061966
:100640001F2B6C21B60A0319B50A061D212B053094
:1006500017217B2038080F39BA00BA073A08012061
:10066000A9003A08013E0120AA0068229A22080047
:10067000023017215120C501A112C030C800C601A7
:100680004C3084004B0884070008C700D200C70A1A
:10069000061C672B16202118972BA118972B482B87
:1006A0000030C300C400051C672B851C672B051D8B
:1006B000672B061C672B162021187D2BA1187D2B7C
:1006C000C30F532B4408FF3C031DC40A532BA11A2C
:1006D000BF2345080319C5035208831603139B0063
:1006E000831203134508831603139A00831203131E
:1006F000A020033017214E2008002508AF00240851
:10070000AE004308AD004408AC0054203008031983
:100710008B2BFF30B0003108013C0318972B3108B8
:100720000E3C0318952B0030962BAA30B623211CC3
:100730009E2BA1156C2155302110A22BA1116C21EB
:10074000FF30A110B6234F3084004B088407000807
:100750004502031D502BA2144B200821061DAC2B73
:10076000861DAC2BA2102110A110672B4805C607CF
:10077000C50AA116C80CC80C0318BF230800C9007D
:100780004708831603139B0083120313460883163E
:1007900003139A00831203131620A0201620C030E2
:1007A000C800C601C70A4908A1120800831603132E
:1007B0009B00831603131C14831603131A08831259
:1007C00003130800061D0134861D0134061C013484
:1007D000051C0134851C0134051D01340034E2235D
:1007E000013C0319EF2B08210800A1134C308400B1
:1007F0004B0884070008C700D623C500FF30450218
:10080000031D042C4B200800C70A4708D623C60046
:100810000430C800C60D0318172CC60D0318202C71
:100820003B213B213B213B213B213B21222CC60D7F
:1008300003181D2C3B213B21222CA1116C21222CC1
:10084000A1156C21C5030319080023192B2CE223E1
:10085000013C0319302CC8030319042C0A2C08008E
:10086000EF23A1170800CB01382308000130CB008B
:10087000382308000230CB0038230800CB01F523D1
:1008800008000130CB00F52308000230CB00F5232F
:1008900008008312031306180800051C582C851C39
:1008A0005B2C051D5E2C061D692C861D6E2C732C81
:1008B00002213324012D02213624012D02213A2464
:1008C000012D061D692C861D6E2C061C612CCC2268
:1008D000012D21116022A1156C21612C21115822BA
:1008E000A1156C21612C0821061C4D2C83120313C9
:1008F00021112211A213231051208312031321135B
:10090000C101C2012508BE002408BF000130C0009B
:1009100083120313061C052D1620831203132118BE
:100920000B2DA118122D211F882CBE03031D882C0E
:10093000BF03031D882CC003031D882C043017211E
:1009400083120313A21B212D23183A2D4208031DE5
:10095000EA2C83120313D030410203197C2D573047
:10096000410203197F2D403041020319572D7C307D
:10097000410203198B2D743041020319892D543023
:1009800041020319612DC03041020319662DD43094
:10099000410203195E2DF03041020319532D5530E9
:1009A00041020319552DF43041020319872DD73028
:1009B00041020319FE2C221DF62C77304102031947
:1009C000682D5C3041020319842D753041020319F2
:1009D000822DF62C8312031350304202031DF42C97
:1009E0005F3041020319642D221DF62C5F30A900EF
:1009F0005030AA006822831203137D2C4E208312EC
:100A000003132110A11021150800061C052D082133
:100A100083120313FE2CA1156C21831203132117DB
:100A20002110182DA1116C21831203132117A1107D
:100A30000314C10CC20C0310A11D0314C10CC20C81
:100A4000822CC0304202031D292DFF3041020319C0
:100A5000732D40304202031D312DFF304102031936
:100A6000762D40304202031DF62CFD304102031961
:100A7000792DF62CC0304202031D422DFF30410279
:100A800003196A2D40304202031D4A2DFF304102F6
:100A900003196D2D40304202031DF62CFD3041023A
:100AA0000319702DF62CA2177D2C23147D2C2215F2
:100AB000482048204820831203137D2CA325BF2102
:100AC0009A2DAA22A3227D2CA3227D2CDA227D2C12
:100AD0001C237D2C332423107D2C362423107D2CC5
:100AE0003A2423107D2C3E24A2137D2C4124A213F2
:100AF0007D2C4524A2137D2CD410BF219A2DD41413
:100B0000BF219A2DEA257D2CDA25BF219A2DAF250C
:100B10007D2CA9259A2DDC30A90068225730A90028
:100B2000C030AA006822D030A9006822F430A900A1
:100B300068227D2C0330172183120313A1156C2129
:100B4000831203137D2C541BA72D54170800541334
:100B50000800541DAD2D5411080054150800A115AE
:100B60006C21A1116C21061D861DB82DD325AF2D3A
:100B7000861D061DBD2DCC25AF2D061CC22D061DC4
:100B80008619AF2D0821061CC22D061DC22D861DFB
:100B9000C22D2110A11008005B08043C03180800B6
:100BA000DB03E32008005B083C3C031C0800DB0A75
:100BB000E32008005418DE2D5414080054100800D7
:100BC0005608133C031DD603080056084D3C031D70
:100BD000D60A0800A111A2143B21061D861DF22D84
:100BE000E025EC2D861D061DF72DE525EC2D061CB8
:100BF000FC2D061D8619EC2DA21006120821061CDC
:100C0000FC2D061DFC2D861DFC2D013083160313C3
:100C10009B00831203135608831603139A00831252
:100C20000313A0202110A11008002330C600A11337
:100C3000E223013C0319202E0821C60B182E0800C0
:100C4000A11708002213051C2A2E851C2A2E051D1B
:100C50002A2E08000730D3001E30B4000508D30543
:100C6000B40B2E2E051C392E851C4F2E051D612E12
:100C70000800061D2217B40A0518402E0821392E37
:100C8000221B762E0530B4020318482E3E24732E04
:100C90003E24A11B732E1526A11B732E482EB40AC9
:100CA0008518542E08214F2E0530B40203185A2EF1
:100CB0004124732E4124A11B732E1526A11B732ED4
:100CC0005A2EB40A0519662E0821612E0530B40289
:100CD00003186C2E4524732E4524A11B732E152654
:100CE000A11B732E6C2E2110A110080022147A264D
:100CF0002210732EA113A126A11B0800A126A11B5F
:100D00000800A126A11B0800D430A9006822A11B5D
:100D100008004030A9006822A11B080065213E247C
:100D2000A11B080065213E24A11B080065213E246B
:100D3000A11B080065217730A9004030AA00682275
:100D40000800DD30A9000030AA006822F730A900B1
:100D500068220800061D8619AE2EB02E0D2208004E
:100D6000061DB02E861DB02E8821CF21080021112E
:100D70005530A9000030AA0068225030A900003088
:100D8000AA00682221150800CF21AA26B7268312BF
:0C0D900003134924162022222226C72E1D
:02400E002A3F47
:00000001FF
